:100000000C942A000C943C000C943C000C943C0092
:100010000C943C000C943C000C943C000C943C0070
:100020000C943C000C943C000C943C000C943C0060
:100030000C943C000C943C000C943C000C943C0050
:100040000C943E000C943C000C943C000C943C003E
:100050000C943C0011241FBECFE5D8E0DEBFCDBF1D
:1000600020E0A0E6B0E001C01D92A136B207E1F7A2
:100070000E945A000C9469000C9400001F920F9289
:100080000FB60F9211248F9385B1809360008F91EA
:100090000F900FBE0F901F9018951BB888E08AB97B
:1000A00086E880BD82E189B910BC08955D9BFECFD2
:1000B0008CB908958DE886B980EE87B90E944D000D
:1000C000789486B1806486B9809160000E94560061
:0600D000F8CFF894FFCF09
:00000001FF
