:100000000C942A000C9434000C9434000C943400AA
:100010000C9434000C9434000C9434000C94340090
:100020000C9434000C9434000C9434000C94340080
:100030000C9434000C9434000C9434000C94340070
:100040000C9434000C9434000C9434000C94340060
:100050000C94340011241FBECFE5D8E0DEBFCDBF25
:100060000E9436000C9452000C94000087B381600B
:1000700087BB88B3816088BB2FE38DE093E021507C
:1000800080409040E1F700C0000088B38E7F88BBBD
:100090002FE38DE093E0215080409040E1F700C0D5
:0800A0000000E7CFF894FFCF48
:00000001FF
