S0120000426C696E6B20546573742E7372656362
S11300000C942A000C9434000C9434000C943400A6
S11300100C9434000C9434000C9434000C9434008C
S11300200C9434000C9434000C9434000C9434007C
S11300300C9434000C9434000C9434000C9434006C
S11300400C9434000C9434000C9434000C9434005C
S11300500C94340011241FBECFE5D8E0DEBFCDBF21
S11300600E9436000C9452000C94000081B380640A
S113007081BB82B3806482BB2FEF80E792E0215082
S113008080409040E1F700C0000082B38F7B82BBC8
S11300902FEF80E792E0215080409040E1F700C0CC
S10B00A00000E7CFF894FFCF44
S9030000FC
